{
  "_format": "hh-sol-artifact-1",
  "contractName": "ProjectPlatformDemo",
  "sourceName": "contracts/ProjectPlatformDemo.sol",
  "abi": [
    {
      "inputs": [],
      "stateMutability": "nonpayable",
      "type": "constructor"
    },
    {
      "anonymous": false,
      "inputs": [
        {
          "indexed": true,
          "internalType": "uint256",
          "name": "projectId",
          "type": "uint256"
        },
        {
          "indexed": true,
          "internalType": "address",
          "name": "commenter",
          "type": "address"
        },
        {
          "indexed": false,
          "internalType": "string",
          "name": "message",
          "type": "string"
        }
      ],
      "name": "CommentAdded",
      "type": "event"
    },
    {
      "anonymous": false,
      "inputs": [
        {
          "indexed": true,
          "internalType": "uint256",
          "name": "projectId",
          "type": "uint256"
        }
      ],
      "name": "ProjectApproved",
      "type": "event"
    },
    {
      "anonymous": false,
      "inputs": [
        {
          "indexed": true,
          "internalType": "uint256",
          "name": "projectId",
          "type": "uint256"
        }
      ],
      "name": "ProjectCancelled",
      "type": "event"
    },
    {
      "anonymous": false,
      "inputs": [
        {
          "indexed": true,
          "internalType": "uint256",
          "name": "projectId",
          "type": "uint256"
        }
      ],
      "name": "ProjectFunded",
      "type": "event"
    },
    {
      "anonymous": false,
      "inputs": [
        {
          "indexed": true,
          "internalType": "uint256",
          "name": "projectId",
          "type": "uint256"
        },
        {
          "indexed": true,
          "internalType": "address",
          "name": "investor",
          "type": "address"
        },
        {
          "indexed": false,
          "internalType": "uint256",
          "name": "amount",
          "type": "uint256"
        }
      ],
      "name": "ProjectInvested",
      "type": "event"
    },
    {
      "anonymous": false,
      "inputs": [
        {
          "indexed": true,
          "internalType": "uint256",
          "name": "projectId",
          "type": "uint256"
        },
        {
          "indexed": true,
          "internalType": "address",
          "name": "investor",
          "type": "address"
        },
        {
          "indexed": false,
          "internalType": "uint256",
          "name": "amount",
          "type": "uint256"
        }
      ],
      "name": "ProjectInvestmentWithdrawn",
      "type": "event"
    },
    {
      "anonymous": false,
      "inputs": [
        {
          "indexed": true,
          "internalType": "uint256",
          "name": "projectId",
          "type": "uint256"
        },
        {
          "indexed": true,
          "internalType": "address",
          "name": "proposer",
          "type": "address"
        }
      ],
      "name": "ProjectProposed",
      "type": "event"
    },
    {
      "anonymous": false,
      "inputs": [
        {
          "indexed": true,
          "internalType": "uint256",
          "name": "projectId",
          "type": "uint256"
        }
      ],
      "name": "ProjectRejected",
      "type": "event"
    },
    {
      "stateMutability": "payable",
      "type": "fallback"
    },
    {
      "inputs": [
        {
          "internalType": "uint256",
          "name": "_projectId",
          "type": "uint256"
        },
        {
          "internalType": "string",
          "name": "_comment",
          "type": "string"
        }
      ],
      "name": "addComment",
      "outputs": [],
      "stateMutability": "nonpayable",
      "type": "function"
    },
    {
      "inputs": [
        {
          "internalType": "uint256",
          "name": "_projectId",
          "type": "uint256"
        }
      ],
      "name": "checkProjectApproval",
      "outputs": [],
      "stateMutability": "nonpayable",
      "type": "function"
    },
    {
      "inputs": [
        {
          "internalType": "uint256",
          "name": "_projectId",
          "type": "uint256"
        }
      ],
      "name": "checkProjectFunding",
      "outputs": [],
      "stateMutability": "nonpayable",
      "type": "function"
    },
    {
      "inputs": [
        {
          "internalType": "uint256",
          "name": "_projectId",
          "type": "uint256"
        },
        {
          "internalType": "uint256",
          "name": "_commentId",
          "type": "uint256"
        }
      ],
      "name": "getComment",
      "outputs": [
        {
          "internalType": "address",
          "name": "author",
          "type": "address"
        },
        {
          "internalType": "string",
          "name": "message",
          "type": "string"
        },
        {
          "internalType": "uint256",
          "name": "date",
          "type": "uint256"
        }
      ],
      "stateMutability": "view",
      "type": "function"
    },
    {
      "inputs": [
        {
          "internalType": "uint256",
          "name": "_projectId",
          "type": "uint256"
        }
      ],
      "name": "getComments",
      "outputs": [
        {
          "components": [
            {
              "internalType": "address",
              "name": "author",
              "type": "address"
            },
            {
              "internalType": "string",
              "name": "message",
              "type": "string"
            },
            {
              "internalType": "uint256",
              "name": "date",
              "type": "uint256"
            }
          ],
          "internalType": "struct ProjectPlatformDemo.Comment[]",
          "name": "comments",
          "type": "tuple[]"
        }
      ],
      "stateMutability": "view",
      "type": "function"
    },
    {
      "inputs": [
        {
          "internalType": "uint256",
          "name": "_projectId",
          "type": "uint256"
        }
      ],
      "name": "getCommentsCount",
      "outputs": [
        {
          "internalType": "uint256",
          "name": "",
          "type": "uint256"
        }
      ],
      "stateMutability": "view",
      "type": "function"
    },
    {
      "inputs": [
        {
          "internalType": "uint256",
          "name": "_projectId",
          "type": "uint256"
        }
      ],
      "name": "getProject",
      "outputs": [
        {
          "internalType": "address",
          "name": "proposer",
          "type": "address"
        },
        {
          "internalType": "string",
          "name": "title",
          "type": "string"
        },
        {
          "internalType": "string",
          "name": "description",
          "type": "string"
        },
        {
          "internalType": "uint256",
          "name": "requiredFunds",
          "type": "uint256"
        },
        {
          "internalType": "uint256",
          "name": "collectedFunds",
          "type": "uint256"
        },
        {
          "internalType": "uint256",
          "name": "totalDevelopmentTime",
          "type": "uint256"
        },
        {
          "internalType": "uint256",
          "name": "deadline",
          "type": "uint256"
        },
        {
          "internalType": "uint256",
          "name": "totalVotes",
          "type": "uint256"
        },
        {
          "internalType": "uint256",
          "name": "positiveVotes",
          "type": "uint256"
        },
        {
          "internalType": "bool",
          "name": "userVoted",
          "type": "bool"
        },
        {
          "internalType": "enum ProjectPlatformDemo.ProjectState",
          "name": "state",
          "type": "uint8"
        }
      ],
      "stateMutability": "view",
      "type": "function"
    },
    {
      "inputs": [],
      "name": "getProjectsCount",
      "outputs": [
        {
          "internalType": "uint256",
          "name": "",
          "type": "uint256"
        }
      ],
      "stateMutability": "view",
      "type": "function"
    },
    {
      "inputs": [
        {
          "internalType": "uint256",
          "name": "_projectId",
          "type": "uint256"
        },
        {
          "internalType": "address",
          "name": "_user",
          "type": "address"
        }
      ],
      "name": "hasVoted",
      "outputs": [
        {
          "internalType": "bool",
          "name": "",
          "type": "bool"
        }
      ],
      "stateMutability": "view",
      "type": "function"
    },
    {
      "inputs": [
        {
          "internalType": "uint256",
          "name": "_projectId",
          "type": "uint256"
        }
      ],
      "name": "investInProject",
      "outputs": [],
      "stateMutability": "payable",
      "type": "function"
    },
    {
      "inputs": [
        {
          "internalType": "uint256",
          "name": "",
          "type": "uint256"
        }
      ],
      "name": "projects",
      "outputs": [
        {
          "internalType": "address",
          "name": "proposer",
          "type": "address"
        },
        {
          "internalType": "string",
          "name": "title",
          "type": "string"
        },
        {
          "internalType": "string",
          "name": "description",
          "type": "string"
        },
        {
          "internalType": "uint256",
          "name": "requiredFunds",
          "type": "uint256"
        },
        {
          "internalType": "uint256",
          "name": "collectedFunds",
          "type": "uint256"
        },
        {
          "internalType": "uint256",
          "name": "totalDevelopmentTime",
          "type": "uint256"
        },
        {
          "internalType": "uint256",
          "name": "deadline",
          "type": "uint256"
        },
        {
          "internalType": "uint256",
          "name": "totalVotes",
          "type": "uint256"
        },
        {
          "internalType": "uint256",
          "name": "positiveVotes",
          "type": "uint256"
        },
        {
          "internalType": "enum ProjectPlatformDemo.ProjectState",
          "name": "state",
          "type": "uint8"
        }
      ],
      "stateMutability": "view",
      "type": "function"
    },
    {
      "inputs": [
        {
          "internalType": "string",
          "name": "_title",
          "type": "string"
        },
        {
          "internalType": "string",
          "name": "_description",
          "type": "string"
        },
        {
          "internalType": "uint256",
          "name": "_fundingGoal",
          "type": "uint256"
        },
        {
          "internalType": "uint256",
          "name": "_totalDevelopmentTime",
          "type": "uint256"
        }
      ],
      "name": "proposeProject",
      "outputs": [
        {
          "internalType": "uint256",
          "name": "",
          "type": "uint256"
        }
      ],
      "stateMutability": "nonpayable",
      "type": "function"
    },
    {
      "inputs": [
        {
          "internalType": "uint256",
          "name": "_projectId",
          "type": "uint256"
        },
        {
          "internalType": "bool",
          "name": "_positiveVote",
          "type": "bool"
        }
      ],
      "name": "voteProject",
      "outputs": [],
      "stateMutability": "nonpayable",
      "type": "function"
    },
    {
      "inputs": [
        {
          "internalType": "uint256",
          "name": "_projectId",
          "type": "uint256"
        }
      ],
      "name": "withdrawInvestment",
      "outputs": [],
      "stateMutability": "nonpayable",
      "type": "function"
    },
    {
      "stateMutability": "payable",
      "type": "receive"
    }
  ],
  "bytecode": "0x60806040523480156200001157600080fd5b50620000776040518060400160405280600e81526020017f53616c6f6e2064652074756e656f00000000000000000000000000000000000081525060405180610120016040528060fe815260200162004cce60fe9139600a601e6200054560201b60201c565b50620000df6040518060400160405280600981526020017f50616e6164657269610000000000000000000000000000000000000000000000815250604051806101400160405280610108815260200162004dcc61010891396003601e6200054560201b60201c565b50620001446040518060400160405280601781526020017f4576656e746f20636f6e74726120656c2063616e6365720000000000000000008152506040518060e0016040528060b2815260200162004f8b60b29139600a601e6200054560201b60201c565b50620001ab6040518060400160405280600e81526020017f4d69204c616d626f726768696e690000000000000000000000000000000000008152506040518060e0016040528060b7815260200162004ed460b79139620186a0601e6200054560201b60201c565b50600080600081548110620001c557620001c462000974565b5b90600052602060002090600d020160090160006101000a81548160ff02191690836003811115620001fb57620001fa620009a3565b5b0217905550600160006001815481106200021a576200021962000974565b5b90600052602060002090600d020160090160006101000a81548160ff0219169083600381111562000250576200024f620009a3565b5b0217905550600260006002815481106200026f576200026e62000974565b5b90600052602060002090600d020160090160006101000a81548160ff02191690836003811115620002a557620002a4620009a3565b5b021790555060036000600381548110620002c457620002c362000974565b5b90600052602060002090600d020160090160006101000a81548160ff02191690836003811115620002fa57620002f9620009a3565b5b02179055506200034760006040518060400160405280600c81526020017f436f6d656e746172696f20310000000000000000000000000000000000000000815250620007e460201b60201c565b6200038f60006040518060400160405280600c81526020017f436f6d656e746172696f20320000000000000000000000000000000000000000815250620007e460201b60201c565b620003d760016040518060400160405280600c81526020017f436f6d656e746172696f20310000000000000000000000000000000000000000815250620007e460201b60201c565b6200041f60016040518060400160405280600c81526020017f436f6d656e746172696f20330000000000000000000000000000000000000000815250620007e460201b60201c565b6200046760026040518060400160405280600c81526020017f436f6d656e746172696f20310000000000000000000000000000000000000000815250620007e460201b60201c565b620004af60026040518060400160405280600c81526020017f436f6d656e746172696f20330000000000000000000000000000000000000000815250620007e460201b60201c565b620004f760036040518060400160405280600c81526020017f436f6d656e746172696f20310000000000000000000000000000000000000000815250620007e460201b60201c565b6200053f60036040518060400160405280600c81526020017f436f6d656e746172696f20330000000000000000000000000000000000000000815250620007e460201b60201c565b6200121a565b6000808551116200058d576040517f08c379a0000000000000000000000000000000000000000000000000000000008152600401620005849062000a33565b60405180910390fd5b6000845111620005d4576040517f08c379a0000000000000000000000000000000000000000000000000000000008152600401620005cb9062000acb565b60405180910390fd5b600083116200061a576040517f08c379a0000000000000000000000000000000000000000000000000000000008152600401620006119062000b63565b60405180910390fd5b6000821162000660576040517f08c379a0000000000000000000000000000000000000000000000000000000008152600401620006579062000bfb565b60405180910390fd5b6000806001816001815401808255809150500390600052602060002090600d02019050338160000160006101000a81548173ffffffffffffffffffffffffffffffffffffffff021916908373ffffffffffffffffffffffffffffffffffffffff16021790555085816001019081620006d9919062000e97565b5084816002019081620006ed919062000e97565b50670de0b6b3a76400008462000704919062000fad565b816003018190555062015180836200071d919062000fad565b816005018190555062278d004262000736919062000ff8565b816006018190555060008160090160006101000a81548160ff02191690836003811115620007695762000768620009a3565b5b02179055503373ffffffffffffffffffffffffffffffffffffffff16600160008054905062000799919062001033565b7fe0b1bc129598200f65adb0eef46e90917c3d2211f2d8fd0d83162a1c7377c81260405160405180910390a36001600080549050620007d9919062001033565b915050949350505050565b60008054905082106200082e576040517f08c379a00000000000000000000000000000000000000000000000000000000081526004016200082590620010be565b60405180910390fd5b600081511162000875576040517f08c379a00000000000000000000000000000000000000000000000000000000081526004016200086c9062001156565b60405180910390fd5b60008083815481106200088d576200088c62000974565b5b90600052602060002090600d0201600b016001816001815401808255809150500390600052602060002090600302019050338160000160006101000a81548173ffffffffffffffffffffffffffffffffffffffff021916908373ffffffffffffffffffffffffffffffffffffffff1602179055508181600101908162000914919062000e97565b504281600201819055503373ffffffffffffffffffffffffffffffffffffffff16837fcc2d7dd2085ae6644799a42c0174adf9afc10a43f26db5eac3ddd1f96d1d64be84604051620009679190620011f6565b60405180910390a3505050565b7f4e487b7100000000000000000000000000000000000000000000000000000000600052603260045260246000fd5b7f4e487b7100000000000000000000000000000000000000000000000000000000600052602160045260246000fd5b600082825260208201905092915050565b7f456c20746974756c6f206e6f20707565646520657374617220766163696f0000600082015250565b600062000a1b601e83620009d2565b915062000a2882620009e3565b602082019050919050565b6000602082019050818103600083015262000a4e8162000a0c565b9050919050565b7f4c61206465736372697063696f6e206e6f20707565646520657374617220766160008201527f6369610000000000000000000000000000000000000000000000000000000000602082015250565b600062000ab3602383620009d2565b915062000ac08262000a55565b604082019050919050565b6000602082019050818103600083015262000ae68162000aa4565b9050919050565b7f456c206f626a657469766f2064652066696e616e63696163696f6e206465626560008201527f20736572206d61796f7220717565203000000000000000000000000000000000602082015250565b600062000b4b603083620009d2565b915062000b588262000aed565b604082019050919050565b6000602082019050818103600083015262000b7e8162000b3c565b9050919050565b7f456c207469656d706f20746f74616c2064652066696e616e63696163696f6e2060008201527f6465626520736572206d61796f72207175652030000000000000000000000000602082015250565b600062000be3603483620009d2565b915062000bf08262000b85565b604082019050919050565b6000602082019050818103600083015262000c168162000bd4565b9050919050565b600081519050919050565b7f4e487b7100000000000000000000000000000000000000000000000000000000600052604160045260246000fd5b7f4e487b7100000000000000000000000000000000000000000000000000000000600052602260045260246000fd5b6000600282049050600182168062000c9f57607f821691505b60208210810362000cb55762000cb462000c57565b5b50919050565b60008190508160005260206000209050919050565b60006020601f8301049050919050565b600082821b905092915050565b60006008830262000d1f7fffffffffffffffffffffffffffffffffffffffffffffffffffffffffffffffff8262000ce0565b62000d2b868362000ce0565b95508019841693508086168417925050509392505050565b6000819050919050565b6000819050919050565b600062000d7862000d7262000d6c8462000d43565b62000d4d565b62000d43565b9050919050565b6000819050919050565b62000d948362000d57565b62000dac62000da38262000d7f565b84845462000ced565b825550505050565b600090565b62000dc362000db4565b62000dd081848462000d89565b505050565b5b8181101562000df85762000dec60008262000db9565b60018101905062000dd6565b5050565b601f82111562000e475762000e118162000cbb565b62000e1c8462000cd0565b8101602085101562000e2c578190505b62000e4462000e3b8562000cd0565b83018262000dd5565b50505b505050565b600082821c905092915050565b600062000e6c6000198460080262000e4c565b1980831691505092915050565b600062000e87838362000e59565b9150826002028217905092915050565b62000ea28262000c1d565b67ffffffffffffffff81111562000ebe5762000ebd62000c28565b5b62000eca825462000c86565b62000ed782828562000dfc565b600060209050601f83116001811462000f0f576000841562000efa578287015190505b62000f06858262000e79565b86555062000f76565b601f19841662000f1f8662000cbb565b60005b8281101562000f495784890151825560018201915060208501945060208101905062000f22565b8683101562000f69578489015162000f65601f89168262000e59565b8355505b6001600288020188555050505b505050505050565b7f4e487b7100000000000000000000000000000000000000000000000000000000600052601160045260246000fd5b600062000fba8262000d43565b915062000fc78362000d43565b925082820262000fd78162000d43565b9150828204841483151762000ff15762000ff062000f7e565b5b5092915050565b6000620010058262000d43565b9150620010128362000d43565b92508282019050808211156200102d576200102c62000f7e565b5b92915050565b6000620010408262000d43565b91506200104d8362000d43565b925082820390508181111562001068576200106762000f7e565b5b92915050565b7f456c2070726f796563746f206e6f206578697374650000000000000000000000600082015250565b6000620010a6601583620009d2565b9150620010b3826200106e565b602082019050919050565b60006020820190508181036000830152620010d98162001097565b9050919050565b7f456c20636f6d656e746172696f206e6f2070756564652065737461722076616360008201527f696f000000000000000000000000000000000000000000000000000000000000602082015250565b60006200113e602283620009d2565b91506200114b82620010e0565b604082019050919050565b6000602082019050818103600083015262001171816200112f565b9050919050565b60005b83811015620011985780820151818401526020810190506200117b565b60008484015250505050565b6000601f19601f8301169050919050565b6000620011c28262000c1d565b620011ce8185620009d2565b9350620011e081856020860162001178565b620011eb81620011a4565b840191505092915050565b60006020820190508181036000830152620012128184620011b5565b905092915050565b613aa4806200122a6000396000f3fe6080604052600436106100e15760003560e01c80635b562fd81161007f578063aa7e568311610059578063aa7e56831461036c578063cf0bdd3b14610395578063e4a8f18b146103be578063f0f3f2c8146103e957610121565b80635b562fd8146102fe5780636d3b736e1461031a5780637be39b8a1461034357610121565b806343859632116100bb578063438596321461020857806343b09dc01461024557806348892753146102825780634c9b78da146102c157610121565b8063107046bd1461015c5780632037fcbf146101a257806323edf697146101cb57610121565b36610121576040517f08c379a0000000000000000000000000000000000000000000000000000000008152600401610118906123ab565b60405180910390fd5b6040517f08c379a0000000000000000000000000000000000000000000000000000000008152600401610153906123ab565b60405180910390fd5b34801561016857600080fd5b50610183600480360381019061017e9190612415565b610430565b6040516101999a99989796959493929190612588565b60405180910390f35b3480156101ae57600080fd5b506101c960048036038101906101c49190612415565b6105d1565b005b3480156101d757600080fd5b506101f260048036038101906101ed9190612415565b610978565b6040516101ff91906127ac565b60405180910390f35b34801561021457600080fd5b5061022f600480360381019061022a91906127fa565b610b35565b60405161023c9190612855565b60405180910390f35b34801561025157600080fd5b5061026c600480360381019061026791906129a5565b610bf5565b6040516102799190612a44565b60405180910390f35b34801561028e57600080fd5b506102a960048036038101906102a49190612a5f565b610e77565b6040516102b893929190612a9f565b60405180910390f35b3480156102cd57600080fd5b506102e860048036038101906102e39190612415565b61103a565b6040516102f59190612a44565b60405180910390f35b61031860048036038101906103139190612415565b6110b2565b005b34801561032657600080fd5b50610341600480360381019061033c9190612415565b6114e9565b005b34801561034f57600080fd5b5061036a60048036038101906103659190612b09565b6118ea565b005b34801561037857600080fd5b50610393600480360381019061038e9190612b49565b611bdd565b005b3480156103a157600080fd5b506103bc60048036038101906103b79190612415565b611d60565b005b3480156103ca57600080fd5b506103d3612100565b6040516103e09190612a44565b60405180910390f35b3480156103f557600080fd5b50610410600480360381019061040b9190612415565b61210c565b6040516104279b9a99989796959493929190612ba5565b60405180910390f35b6000818154811061044057600080fd5b90600052602060002090600d02016000915090508060000160009054906101000a900473ffffffffffffffffffffffffffffffffffffffff169080600101805461048990612c8d565b80601f01602080910402602001604051908101604052809291908181526020018280546104b590612c8d565b80156105025780601f106104d757610100808354040283529160200191610502565b820191906000526020600020905b8154815290600101906020018083116104e557829003601f168201915b50505050509080600201805461051790612c8d565b80601f016020809104026020016040519081016040528092919081815260200182805461054390612c8d565b80156105905780601f1061056557610100808354040283529160200191610590565b820191906000526020600020905b81548152906001019060200180831161057357829003601f168201915b5050505050908060030154908060040154908060050154908060060154908060070154908060080154908060090160009054906101000a900460ff1690508a565b6000805490508110610618576040517f08c379a000000000000000000000000000000000000000000000000000000000815260040161060f90612d0a565b60405180910390fd5b426000828154811061062d5761062c612d2a565b5b90600052602060002090600d0201600601541061067f576040517f08c379a000000000000000000000000000000000000000000000000000000000815260040161067690612dcb565b60405180910390fd5b60005b6000828154811061069657610695612d2a565b5b90600052602060002090600d0201600a0180549050811015610933573373ffffffffffffffffffffffffffffffffffffffff16600083815481106106dd576106dc612d2a565b5b90600052602060002090600d0201600a018281548110610700576106ff612d2a565b5b906000526020600020906003020160000160009054906101000a900473ffffffffffffffffffffffffffffffffffffffff1673ffffffffffffffffffffffffffffffffffffffff1614801561079d5750600080838154811061076557610764612d2a565b5b90600052602060002090600d0201600a01828154811061078857610787612d2a565b5b90600052602060002090600302016001015414155b156109205760008083815481106107b7576107b6612d2a565b5b90600052602060002090600d0201600a0182815481106107da576107d9612d2a565b5b90600052602060002090600302016001018190555060003390508073ffffffffffffffffffffffffffffffffffffffff166108fc6000858154811061082257610821612d2a565b5b90600052602060002090600d0201600a01848154811061084557610844612d2a565b5b9060005260206000209060030201600101549081150290604051600060405180830381858888f19350505050158015610882573d6000803e3d6000fd5b503373ffffffffffffffffffffffffffffffffffffffff16837fe7b2382e61c359f7dd8558e2c8c3fcfef0f87ea4e02632eb5f7020feaa2486b7600086815481106108d0576108cf612d2a565b5b90600052602060002090600d0201600a0185815481106108f3576108f2612d2a565b5b9060005260206000209060030201600101546040516109129190612a44565b60405180910390a350610933565b808061092b90612e1a565b915050610682565b506000610975576040517f08c379a000000000000000000000000000000000000000000000000000000000815260040161096c90612ed4565b60405180910390fd5b50565b606060008054905082106109c1576040517f08c379a00000000000000000000000000000000000000000000000000000000081526004016109b890612d0a565b60405180910390fd5b600082815481106109d5576109d4612d2a565b5b90600052602060002090600d0201600b01805480602002602001604051908101604052809291908181526020016000905b82821015610b2a57838290600052602060002090600302016040518060600160405290816000820160009054906101000a900473ffffffffffffffffffffffffffffffffffffffff1673ffffffffffffffffffffffffffffffffffffffff1673ffffffffffffffffffffffffffffffffffffffff168152602001600182018054610a8f90612c8d565b80601f0160208091040260200160405190810160405280929190818152602001828054610abb90612c8d565b8015610b085780601f10610add57610100808354040283529160200191610b08565b820191906000526020600020905b815481529060010190602001808311610aeb57829003601f168201915b5050505050815260200160028201548152505081526020019060010190610a06565b505050509050919050565b600080805490508310610b7d576040517f08c379a0000000000000000000000000000000000000000000000000000000008152600401610b7490612d0a565b60405180910390fd5b60008381548110610b9157610b90612d2a565b5b90600052602060002090600d0201600c0160008373ffffffffffffffffffffffffffffffffffffffff1673ffffffffffffffffffffffffffffffffffffffff16815260200190815260200160002060009054906101000a900460ff16905092915050565b600080855111610c3a576040517f08c379a0000000000000000000000000000000000000000000000000000000008152600401610c3190612f40565b60405180910390fd5b6000845111610c7e576040517f08c379a0000000000000000000000000000000000000000000000000000000008152600401610c7590612fd2565b60405180910390fd5b60008311610cc1576040517f08c379a0000000000000000000000000000000000000000000000000000000008152600401610cb890613064565b60405180910390fd5b60008211610d04576040517f08c379a0000000000000000000000000000000000000000000000000000000008152600401610cfb906130f6565b60405180910390fd5b6000806001816001815401808255809150500390600052602060002090600d02019050338160000160006101000a81548173ffffffffffffffffffffffffffffffffffffffff021916908373ffffffffffffffffffffffffffffffffffffffff16021790555085816001019081610d7b91906132c2565b5084816002019081610d8d91906132c2565b50670de0b6b3a764000084610da29190613394565b81600301819055506201518083610db99190613394565b816005018190555062278d0042610dd091906133d6565b816006018190555060008160090160006101000a81548160ff02191690836003811115610e0057610dff612511565b5b02179055503373ffffffffffffffffffffffffffffffffffffffff166001600080549050610e2e919061340a565b7fe0b1bc129598200f65adb0eef46e90917c3d2211f2d8fd0d83162a1c7377c81260405160405180910390a36001600080549050610e6c919061340a565b915050949350505050565b60006060600080805490508510610ec3576040517f08c379a0000000000000000000000000000000000000000000000000000000008152600401610eba90612d0a565b60405180910390fd5b60008581548110610ed757610ed6612d2a565b5b90600052602060002090600d0201600b01805490508410610f2d576040517f08c379a0000000000000000000000000000000000000000000000000000000008152600401610f249061348a565b60405180910390fd5b6000808681548110610f4257610f41612d2a565b5b90600052602060002090600d0201600b018581548110610f6557610f64612d2a565b5b906000526020600020906003020190508060000160009054906101000a900473ffffffffffffffffffffffffffffffffffffffff169350806001018054610fab90612c8d565b80601f0160208091040260200160405190810160405280929190818152602001828054610fd790612c8d565b80156110245780601f10610ff957610100808354040283529160200191611024565b820191906000526020600020905b81548152906001019060200180831161100757829003601f168201915b5050505050925080600201549150509250925092565b600080805490508210611082576040517f08c379a000000000000000000000000000000000000000000000000000000000815260040161107990612d0a565b60405180910390fd5b6000828154811061109657611095612d2a565b5b90600052602060002090600d0201600b01805490509050919050565b60008054905081106110f9576040517f08c379a00000000000000000000000000000000000000000000000000000000081526004016110f090612d0a565b60405180910390fd5b6001600381111561110d5761110c612511565b5b6000828154811061112157611120612d2a565b5b90600052602060002090600d020160090160009054906101000a900460ff16600381111561115257611151612511565b5b14611192576040517f08c379a00000000000000000000000000000000000000000000000000000000081526004016111899061351c565b60405180910390fd5b600081815481106111a6576111a5612d2a565b5b90600052602060002090600d02016006015442106111f9576040517f08c379a00000000000000000000000000000000000000000000000000000000081526004016111f0906135ae565b60405180910390fd5b6000341161123c576040517f08c379a000000000000000000000000000000000000000000000000000000000815260040161123390613640565b60405180910390fd5b346000828154811061125157611250612d2a565b5b90600052602060002090600d0201600401600082825461127191906133d6565b92505081905550600080828154811061128d5761128c612d2a565b5b90600052602060002090600d0201600a016001816001815401808255809150500390600052602060002090600302019050338160000160006101000a81548173ffffffffffffffffffffffffffffffffffffffff021916908373ffffffffffffffffffffffffffffffffffffffff1602179055503481600101819055504281600201819055503373ffffffffffffffffffffffffffffffffffffffff16827f10a369229b7bf62051555039f563c0ef8d11f605c5e7b8cac6011a59551e987b3460405161135a9190612a44565b60405180910390a36000828154811061137657611375612d2a565b5b90600052602060002090600d0201600301546000838154811061139c5761139b612d2a565b5b90600052602060002090600d020160040154106114e5576002600083815481106113c9576113c8612d2a565b5b90600052602060002090600d020160090160006101000a81548160ff021916908360038111156113fc576113fb612511565b5b0217905550600080838154811061141657611415612d2a565b5b90600052602060002090600d020160000160009054906101000a900473ffffffffffffffffffffffffffffffffffffffff1690508073ffffffffffffffffffffffffffffffffffffffff166108fc6000858154811061147857611477612d2a565b5b90600052602060002090600d0201600401549081150290604051600060405180830381858888f193505050501580156114b5573d6000803e3d6000fd5b50827f2301e0a2ad8f6e28a7fbb09e96f5c14e588fac346ed5ce607e1a018bc768864660405160405180910390a2505b5050565b6000805490508110611530576040517f08c379a000000000000000000000000000000000000000000000000000000000815260040161152790612d0a565b60405180910390fd5b3373ffffffffffffffffffffffffffffffffffffffff166000828154811061155b5761155a612d2a565b5b90600052602060002090600d020160000160009054906101000a900473ffffffffffffffffffffffffffffffffffffffff1673ffffffffffffffffffffffffffffffffffffffff16146115e3576040517f08c379a00000000000000000000000000000000000000000000000000000000081526004016115da906136ac565b60405180910390fd5b600160038111156115f7576115f6612511565b5b6000828154811061160b5761160a612d2a565b5b90600052602060002090600d020160090160009054906101000a900460ff16600381111561163c5761163b612511565b5b1461167c576040517f08c379a00000000000000000000000000000000000000000000000000000000081526004016116739061351c565b60405180910390fd5b600081815481106116905761168f612d2a565b5b90600052602060002090600d0201600601544210156116e4576040517f08c379a00000000000000000000000000000000000000000000000000000000081526004016116db9061373e565b60405180910390fd5b600081815481106116f8576116f7612d2a565b5b90600052602060002090600d0201600301546000828154811061171e5761171d612d2a565b5b90600052602060002090600d0201600401541061186b5760026000828154811061174b5761174a612d2a565b5b90600052602060002090600d020160090160006101000a81548160ff0219169083600381111561177e5761177d612511565b5b0217905550600080828154811061179857611797612d2a565b5b90600052602060002090600d020160000160009054906101000a900473ffffffffffffffffffffffffffffffffffffffff1690508073ffffffffffffffffffffffffffffffffffffffff166108fc600084815481106117fa576117f9612d2a565b5b90600052602060002090600d0201600401549081150290604051600060405180830381858888f19350505050158015611837573d6000803e3d6000fd5b50817f2301e0a2ad8f6e28a7fbb09e96f5c14e588fac346ed5ce607e1a018bc768864660405160405180910390a2506118e7565b60036000828154811061188157611880612d2a565b5b90600052602060002090600d020160090160006101000a81548160ff021916908360038111156118b4576118b3612511565b5b0217905550807fe3805ed669490875ae87c5c8b1ad6ecca0e5e67305a833926d0d4317c4822fc060405160405180910390a25b50565b6000805490508210611931576040517f08c379a000000000000000000000000000000000000000000000000000000000815260040161192890612d0a565b60405180910390fd5b6000600381111561194557611944612511565b5b6000838154811061195957611958612d2a565b5b90600052602060002090600d020160090160009054906101000a900460ff16600381111561198a57611989612511565b5b146119ca576040517f08c379a00000000000000000000000000000000000000000000000000000000081526004016119c1906137d0565b60405180910390fd5b600082815481106119de576119dd612d2a565b5b90600052602060002090600d0201600601544210611a31576040517f08c379a0000000000000000000000000000000000000000000000000000000008152600401611a289061383c565b60405180910390fd5b60008281548110611a4557611a44612d2a565b5b90600052602060002090600d0201600c0160003373ffffffffffffffffffffffffffffffffffffffff1673ffffffffffffffffffffffffffffffffffffffff16815260200190815260200160002060009054906101000a900460ff1615611ae1576040517f08c379a0000000000000000000000000000000000000000000000000000000008152600401611ad8906138a8565b60405180910390fd5b60008281548110611af557611af4612d2a565b5b90600052602060002090600d02016007016000815480929190611b1790612e1a565b91905055508015611b5e5760008281548110611b3657611b35612d2a565b5b90600052602060002090600d02016008016000815480929190611b5890612e1a565b91905055505b600160008381548110611b7457611b73612d2a565b5b90600052602060002090600d0201600c0160003373ffffffffffffffffffffffffffffffffffffffff1673ffffffffffffffffffffffffffffffffffffffff16815260200190815260200160002060006101000a81548160ff0219169083151502179055505050565b6000805490508210611c24576040517f08c379a0000000000000000000000000000000000000000000000000000000008152600401611c1b90612d0a565b60405180910390fd5b6000815111611c68576040517f08c379a0000000000000000000000000000000000000000000000000000000008152600401611c5f9061393a565b60405180910390fd5b6000808381548110611c7d57611c7c612d2a565b5b90600052602060002090600d0201600b016001816001815401808255809150500390600052602060002090600302019050338160000160006101000a81548173ffffffffffffffffffffffffffffffffffffffff021916908373ffffffffffffffffffffffffffffffffffffffff16021790555081816001019081611d0291906132c2565b504281600201819055503373ffffffffffffffffffffffffffffffffffffffff16837fcc2d7dd2085ae6644799a42c0174adf9afc10a43f26db5eac3ddd1f96d1d64be84604051611d53919061395a565b60405180910390a3505050565b6000805490508110611da7576040517f08c379a0000000000000000000000000000000000000000000000000000000008152600401611d9e90612d0a565b60405180910390fd5b3373ffffffffffffffffffffffffffffffffffffffff1660008281548110611dd257611dd1612d2a565b5b90600052602060002090600d020160000160009054906101000a900473ffffffffffffffffffffffffffffffffffffffff1673ffffffffffffffffffffffffffffffffffffffff1614611e5a576040517f08c379a0000000000000000000000000000000000000000000000000000000008152600401611e51906136ac565b60405180910390fd5b60006003811115611e6e57611e6d612511565b5b60008281548110611e8257611e81612d2a565b5b90600052602060002090600d020160090160009054906101000a900460ff166003811115611eb357611eb2612511565b5b14611ef3576040517f08c379a0000000000000000000000000000000000000000000000000000000008152600401611eea906137d0565b60405180910390fd5b60008181548110611f0757611f06612d2a565b5b90600052602060002090600d020160060154421015611f5b576040517f08c379a0000000000000000000000000000000000000000000000000000000008152600401611f52906139ee565b60405180910390fd5b6000808281548110611f7057611f6f612d2a565b5b90600052602060002090600d020160070154606460008481548110611f9857611f97612d2a565b5b90600052602060002090600d020160080154611fb49190613394565b611fbe9190613a3d565b90506055811061208057600160008381548110611fde57611fdd612d2a565b5b90600052602060002090600d020160090160006101000a81548160ff0219169083600381111561201157612010612511565b5b021790555062278d004261202591906133d6565b6000838154811061203957612038612d2a565b5b90600052602060002090600d020160060181905550817ffc534544f8ed1b516bf078b4ae88509d8f81f4fafefb10e9aad53e3e1fbce9bb60405160405180910390a26120fc565b60036000838154811061209657612095612d2a565b5b90600052602060002090600d020160090160006101000a81548160ff021916908360038111156120c9576120c8612511565b5b0217905550817fcdcfe8bd58f12ac7a585895f7045b6322a1ec7e7179377dc3bfa8434ed22e72460405160405180910390a25b5050565b60008080549050905090565b60006060806000806000806000806000806000805490508c10612164576040517f08c379a000000000000000000000000000000000000000000000000000000000815260040161215b90612d0a565b60405180910390fd5b6000808d8154811061217957612178612d2a565b5b90600052602060002090600d020190508060000160009054906101000a900473ffffffffffffffffffffffffffffffffffffffff169b508060010180546121bf90612c8d565b80601f01602080910402602001604051908101604052809291908181526020018280546121eb90612c8d565b80156122385780601f1061220d57610100808354040283529160200191612238565b820191906000526020600020905b81548152906001019060200180831161221b57829003601f168201915b50505050509a5080600201805461224e90612c8d565b80601f016020809104026020016040519081016040528092919081815260200182805461227a90612c8d565b80156122c75780601f1061229c576101008083540402835291602001916122c7565b820191906000526020600020905b8154815290600101906020018083116122aa57829003601f168201915b505050505099508060030154985080600401549750806005015496508060060154955080600701549450806008015493506123028d33610b35565b92508060090160009054906101000a900460ff1691505091939597999b90929496989a50565b600082825260208201905092915050565b7f4e6f207365206163657074616e20666f6e646f7320656e206c6120646972656360008201527f63696f6e2064656c20636f6e747261746f000000000000000000000000000000602082015250565b6000612395603183612328565b91506123a082612339565b604082019050919050565b600060208201905081810360008301526123c481612388565b9050919050565b6000604051905090565b600080fd5b600080fd5b6000819050919050565b6123f2816123df565b81146123fd57600080fd5b50565b60008135905061240f816123e9565b92915050565b60006020828403121561242b5761242a6123d5565b5b600061243984828501612400565b91505092915050565b600073ffffffffffffffffffffffffffffffffffffffff82169050919050565b600061246d82612442565b9050919050565b61247d81612462565b82525050565b600081519050919050565b60005b838110156124ac578082015181840152602081019050612491565b60008484015250505050565b6000601f19601f8301169050919050565b60006124d482612483565b6124de8185612328565b93506124ee81856020860161248e565b6124f7816124b8565b840191505092915050565b61250b816123df565b82525050565b7f4e487b7100000000000000000000000000000000000000000000000000000000600052602160045260246000fd5b6004811061255157612550612511565b5b50565b600081905061256282612540565b919050565b600061257282612554565b9050919050565b61258281612567565b82525050565b60006101408201905061259e600083018d612474565b81810360208301526125b0818c6124c9565b905081810360408301526125c4818b6124c9565b90506125d3606083018a612502565b6125e06080830189612502565b6125ed60a0830188612502565b6125fa60c0830187612502565b61260760e0830186612502565b612615610100830185612502565b612623610120830184612579565b9b9a5050505050505050505050565b600081519050919050565b600082825260208201905092915050565b6000819050602082019050919050565b61266781612462565b82525050565b600082825260208201905092915050565b600061268982612483565b612693818561266d565b93506126a381856020860161248e565b6126ac816124b8565b840191505092915050565b6126c0816123df565b82525050565b60006060830160008301516126de600086018261265e565b50602083015184820360208601526126f6828261267e565b915050604083015161270b60408601826126b7565b508091505092915050565b600061272283836126c6565b905092915050565b6000602082019050919050565b600061274282612632565b61274c818561263d565b93508360208202850161275e8561264e565b8060005b8581101561279a578484038952815161277b8582612716565b94506127868361272a565b925060208a01995050600181019050612762565b50829750879550505050505092915050565b600060208201905081810360008301526127c68184612737565b905092915050565b6127d781612462565b81146127e257600080fd5b50565b6000813590506127f4816127ce565b92915050565b60008060408385031215612811576128106123d5565b5b600061281f85828601612400565b9250506020612830858286016127e5565b9150509250929050565b60008115159050919050565b61284f8161283a565b82525050565b600060208201905061286a6000830184612846565b92915050565b600080fd5b600080fd5b7f4e487b7100000000000000000000000000000000000000000000000000000000600052604160045260246000fd5b6128b2826124b8565b810181811067ffffffffffffffff821117156128d1576128d061287a565b5b80604052505050565b60006128e46123cb565b90506128f082826128a9565b919050565b600067ffffffffffffffff8211156129105761290f61287a565b5b612919826124b8565b9050602081019050919050565b82818337600083830152505050565b6000612948612943846128f5565b6128da565b90508281526020810184848401111561296457612963612875565b5b61296f848285612926565b509392505050565b600082601f83011261298c5761298b612870565b5b813561299c848260208601612935565b91505092915050565b600080600080608085870312156129bf576129be6123d5565b5b600085013567ffffffffffffffff8111156129dd576129dc6123da565b5b6129e987828801612977565b945050602085013567ffffffffffffffff811115612a0a57612a096123da565b5b612a1687828801612977565b9350506040612a2787828801612400565b9250506060612a3887828801612400565b91505092959194509250565b6000602082019050612a596000830184612502565b92915050565b60008060408385031215612a7657612a756123d5565b5b6000612a8485828601612400565b9250506020612a9585828601612400565b9150509250929050565b6000606082019050612ab46000830186612474565b8181036020830152612ac681856124c9565b9050612ad56040830184612502565b949350505050565b612ae68161283a565b8114612af157600080fd5b50565b600081359050612b0381612add565b92915050565b60008060408385031215612b2057612b1f6123d5565b5b6000612b2e85828601612400565b9250506020612b3f85828601612af4565b9150509250929050565b60008060408385031215612b6057612b5f6123d5565b5b6000612b6e85828601612400565b925050602083013567ffffffffffffffff811115612b8f57612b8e6123da565b5b612b9b85828601612977565b9150509250929050565b600061016082019050612bbb600083018e612474565b8181036020830152612bcd818d6124c9565b90508181036040830152612be1818c6124c9565b9050612bf0606083018b612502565b612bfd608083018a612502565b612c0a60a0830189612502565b612c1760c0830188612502565b612c2460e0830187612502565b612c32610100830186612502565b612c40610120830185612846565b612c4e610140830184612579565b9c9b505050505050505050505050565b7f4e487b7100000000000000000000000000000000000000000000000000000000600052602260045260246000fd5b60006002820490506001821680612ca557607f821691505b602082108103612cb857612cb7612c5e565b5b50919050565b7f456c2070726f796563746f206e6f206578697374650000000000000000000000600082015250565b6000612cf4601583612328565b9150612cff82612cbe565b602082019050919050565b60006020820190508181036000830152612d2381612ce7565b9050919050565b7f4e487b7100000000000000000000000000000000000000000000000000000000600052603260045260246000fd5b7f456c2070726f796563746f2061756e206573746120656e20666173652064652060008201527f66696e616e63696163696f6e2e00000000000000000000000000000000000000602082015250565b6000612db5602d83612328565b9150612dc082612d59565b604082019050919050565b60006020820190508181036000830152612de481612da8565b9050919050565b7f4e487b7100000000000000000000000000000000000000000000000000000000600052601160045260246000fd5b6000612e25826123df565b91507fffffffffffffffffffffffffffffffffffffffffffffffffffffffffffffffff8203612e5757612e56612deb565b5b600182019050919050565b7f4e6f2068617320706172746963697061646f20656e20656c2070726f7965637460008201527f6f2e000000000000000000000000000000000000000000000000000000000000602082015250565b6000612ebe602283612328565b9150612ec982612e62565b604082019050919050565b60006020820190508181036000830152612eed81612eb1565b9050919050565b7f456c20746974756c6f206e6f20707565646520657374617220766163696f0000600082015250565b6000612f2a601e83612328565b9150612f3582612ef4565b602082019050919050565b60006020820190508181036000830152612f5981612f1d565b9050919050565b7f4c61206465736372697063696f6e206e6f20707565646520657374617220766160008201527f6369610000000000000000000000000000000000000000000000000000000000602082015250565b6000612fbc602383612328565b9150612fc782612f60565b604082019050919050565b60006020820190508181036000830152612feb81612faf565b9050919050565b7f456c206f626a657469766f2064652066696e616e63696163696f6e206465626560008201527f20736572206d61796f7220717565203000000000000000000000000000000000602082015250565b600061304e603083612328565b915061305982612ff2565b604082019050919050565b6000602082019050818103600083015261307d81613041565b9050919050565b7f456c207469656d706f20746f74616c2064652066696e616e63696163696f6e2060008201527f6465626520736572206d61796f72207175652030000000000000000000000000602082015250565b60006130e0603483612328565b91506130eb82613084565b604082019050919050565b6000602082019050818103600083015261310f816130d3565b9050919050565b60008190508160005260206000209050919050565b60006020601f8301049050919050565b600082821b905092915050565b6000600883026131787fffffffffffffffffffffffffffffffffffffffffffffffffffffffffffffffff8261313b565b613182868361313b565b95508019841693508086168417925050509392505050565b6000819050919050565b60006131bf6131ba6131b5846123df565b61319a565b6123df565b9050919050565b6000819050919050565b6131d9836131a4565b6131ed6131e5826131c6565b848454613148565b825550505050565b600090565b6132026131f5565b61320d8184846131d0565b505050565b5b81811015613231576132266000826131fa565b600181019050613213565b5050565b601f8211156132765761324781613116565b6132508461312b565b8101602085101561325f578190505b61327361326b8561312b565b830182613212565b50505b505050565b600082821c905092915050565b60006132996000198460080261327b565b1980831691505092915050565b60006132b28383613288565b9150826002028217905092915050565b6132cb82612483565b67ffffffffffffffff8111156132e4576132e361287a565b5b6132ee8254612c8d565b6132f9828285613235565b600060209050601f83116001811461332c576000841561331a578287015190505b61332485826132a6565b86555061338c565b601f19841661333a86613116565b60005b828110156133625784890151825560018201915060208501945060208101905061333d565b8683101561337f578489015161337b601f891682613288565b8355505b6001600288020188555050505b505050505050565b600061339f826123df565b91506133aa836123df565b92508282026133b8816123df565b915082820484148315176133cf576133ce612deb565b5b5092915050565b60006133e1826123df565b91506133ec836123df565b925082820190508082111561340457613403612deb565b5b92915050565b6000613415826123df565b9150613420836123df565b925082820390508181111561343857613437612deb565b5b92915050565b7f456c20636f6d656e746172696f206e6f20657869737465000000000000000000600082015250565b6000613474601783612328565b915061347f8261343e565b602082019050919050565b600060208201905081810360008301526134a381613467565b9050919050565b7f456c2070726f796563746f206e6f206573746120656e2066617365206465206660008201527f696e616e63696163696f6e000000000000000000000000000000000000000000602082015250565b6000613506602b83612328565b9150613511826134aa565b604082019050919050565b60006020820190508181036000830152613535816134f9565b9050919050565b7f456c20706c617a6f207061726120696e7665727469722068612065787069726160008201527f646f000000000000000000000000000000000000000000000000000000000000602082015250565b6000613598602283612328565b91506135a38261353c565b604082019050919050565b600060208201905081810360008301526135c78161358b565b9050919050565b7f4c612063616e746964616420646520696e76657273696f6e206465626520736560008201527f72206d61796f7220717565203000000000000000000000000000000000000000602082015250565b600061362a602d83612328565b9150613635826135ce565b604082019050919050565b600060208201905081810360008301526136598161361d565b9050919050565b7f4e6f206572657320656c206175746f7200000000000000000000000000000000600082015250565b6000613696601083612328565b91506136a182613660565b602082019050919050565b600060208201905081810360008301526136c581613689565b9050919050565b7f456c20706c617a6f207061726120696e766572746972206e6f2068612065787060008201527f697261646f000000000000000000000000000000000000000000000000000000602082015250565b6000613728602583612328565b9150613733826136cc565b604082019050919050565b600060208201905081810360008301526137578161371b565b9050919050565b7f456c2070726f796563746f206e6f20657374612070656e6469656e746520646560008201527f206170726f626163696f6e000000000000000000000000000000000000000000602082015250565b60006137ba602b83612328565b91506137c58261375e565b604082019050919050565b600060208201905081810360008301526137e9816137ad565b9050919050565b7f456c20706c617a6f207061726120766f74617220686120657870697261646f00600082015250565b6000613826601f83612328565b9150613831826137f0565b602082019050919050565b6000602082019050818103600083015261385581613819565b9050919050565b7f59612068617320766f7461646f20657374652070726f796563746f0000000000600082015250565b6000613892601b83612328565b915061389d8261385c565b602082019050919050565b600060208201905081810360008301526138c181613885565b9050919050565b7f456c20636f6d656e746172696f206e6f2070756564652065737461722076616360008201527f696f000000000000000000000000000000000000000000000000000000000000602082015250565b6000613924602283612328565b915061392f826138c8565b604082019050919050565b6000602082019050818103600083015261395381613917565b9050919050565b6000602082019050818103600083015261397481846124c9565b905092915050565b7f456c20706c617a6f207061726120766f746172206e6f2068612065787069726160008201527f646f000000000000000000000000000000000000000000000000000000000000602082015250565b60006139d8602283612328565b91506139e38261397c565b604082019050919050565b60006020820190508181036000830152613a07816139cb565b9050919050565b7f4e487b7100000000000000000000000000000000000000000000000000000000600052601260045260246000fd5b6000613a48826123df565b9150613a53836123df565b925082613a6357613a62613a0e565b5b82820490509291505056fea26469706673582212205b5e1ce031601f932845962abdb30b3179ee869c711426f158a7514dc4451e1664736f6c63430008110033456e206d6920676172616a652064652074756e656f20646520636f6368657320706572736f6e616c697a616d6f732079206d656a6f72616d6f73206d6f746f7265732c2073757370656e73696f6e65732c206672656e6f73207920636172726f636572696173206465207665686963756c6f7320706172612068616365726c6f7320756e69636f732079206d617320706f74656e7465732e2054616d6269656e206f66726563656d6f7320736572766963696f73206465206d616e74656e696d69656e746f20636f6d706c65746f2070617261206d616e74656e6572206c6f73206175746f7320656e206f7074696d617320636f6e646963696f6e65732e4d692070616e61646572696120657320756e206c7567617220646f6e64652070756564657320656e636f6e747261722070616e65732072656369656e20686f726e6561646f732c2070617374656c65732c2067616c6c65746173207920656d70616e6164617320706172612064697366727574617220656e206375616c7175696572206d6f6d656e746f2064656c206469612e204f66726563656d6f732070726f647563746f7320646520616c74612063616c696461642c2070726570617261646f7320636f6e20696e6772656469656e7465732066726573636f73207920636f6e206c6120706173696f6e20646520756e612070616e616465726961206172746573616e616c2e4d69204c616d626f726768696e6920657320756e206175746f206465706f727469766f206465206c756a6f2e204f667265636520756e20616c746f2072656e64696d69656e746f2c2076656c6f6369646164207920657374696c6f2e20457320756e2069636f6e6f206465206c6120696e67656e6965726961206974616c69616e61207920756e6120657870657269656e636961206465206d616e656a6f20656d6f63696f6e616e74652079206578636c75736976612e4d69206576656e746f2062656e656669636f20636f6e74726120656c2063616e636572207265756e6520666f6e646f732070617261206c6120696e7665737469676163696f6e20792074726174616d69656e746f206465206573746120656e6665726d656461642e204f66726563656d6f7320656e74726574656e696d69656e746f2c2073756261737461206465206f62726173206465206172746520792070726f647563746f73206c6f63616c65732e20",
  "linkReferences": {},
  "deployedLinkReferences": {}
}